:020000040800F2
:100000000050002021020008270200082B020008EF
:100010009D020008A1020008E9020008000000009B
:100020000000000000000000000000003103000894
:100030003503000800000000390300088D24000883
:100040004D0300084D0300084D0300084D03000850
:100050004D0300084D0300084D0300084D03000840
:100060004D0300084D0300084D0300084D03000830
:100070004D0300084D0300084D0300084D03000820
:100080004D0300084D0300084D0300084D03000810
:100090004D0300084D0300084D0300084D03000800
:1000A0004D0300084D0300084D0300084D030008F0
:1000B0004D0300084D0300084D0300084D030008E0
:1000C0004D0300084D0300084D0300084D030008D0
:1000D0004D030008D12D0008492E00084D030008EB
:1000E000F92900084D0300084D0300080000000036
:1000F0000000000000000000000000000000000000
:1001000000000000000000005FF808F100B583B0B7
:1001100001F0CAFD304B314A1360314A1360314B54
:10012000314A03E011681960043304322F498B42CD
:10013000F8D32A4B1A682E4B9A4200D0FEE7284B80
:100140001A682C4B9A42F9D1234B2B4A13602B4A45
:1001500013602B4B02E000221A600433294A9342B9
:10016000F9D3254B1B6813B9244B1B6803B1FEE779
:1001700001F0A6FD694601A801F028FD224B234CA1
:10018000E41AA4100025AC4214DC214B214CE41AE3
:10019000A4100025AC4213DC0099019802F07CFC0D
:1001A00005461D4B1D4CE41AA410002C0EDC2846FD
:1001B00001F0DEFC144B53F8253098470135E2E797
:1001C000134B53F8253098470135E3E7013C124BB8
:1001D00053F824309847E8E7BABADECA0000002096
:1001E00010020020000000204C4B000814020020E8
:1001F000785634123254769814020020E43A0020E3
:1002000014020020E83A0020780300087803000870
:1002100078030008780300087803000878030008D2
:1002200008B5FFF773FF00BEFEE71EF0040F0CBF1A
:10023000EFF30880EFF309807146414A10472DE93A
:10024000F04182B004468846124B5E6B9F6B9D6AFC
:100250001B6B13F0020F03D00E4BDB6A002B0CDB81
:100260000D4801F0C5FCCDF800803B4632462946DA
:10027000204601F029FD00BEFEE74BF6AB6101F020
:100280009DFD0028ECD04FF00042024BDA6202B034
:10029000BDE8F08100ED00E04047000800BEFEE749
:1002A0001EF0040F0CBFEFF30880EFF309807146D6
:1002B000244A10472DE9F04182B004468846084B95
:1002C0005E6B9F6B9D6A074801F092FCCDF8008041
:1002D0003B4632462946204601F0F6FC00BEFEE7CA
:1002E00000ED00E0504700081EF0040F0CBFEFF3D4
:1002F0000880EFF309807146134A10472DE9F04159
:1003000082B004468846084B5E6B9F6B9D6A074827
:1003100001F06EFCCDF800803B463246294620466F
:1003200001F0D2FC00BEFEE700ED00E05C470008F3
:1003300000BEFEE700BEFEE700BEFEE7704700001D
:100340003F020008B5020008FD02000800BEFEE7FB
:100350004C4B000800000020140200204C4B000809
:10036000000000000000000014020020E83A002015
:08037000000000000000000085
:1003780010B50446B0F5E06F0FD0B0F5C06F0CD0E3
:10038800B0F5A06F09D0B0F5806F06D0B0F5407F0A
:1003980003D06321044801F01DFC44F0BF6444F419
:1003A8000034024BDC6010BD9044000800ED00E012
:1003B80010B50446C378012B03D97521204801F0F4
:1003C80009FC63780F2B10D8A3780F2B12D8E37889
:1003D800ABB923785A0903F01F03012101FA03F38B
:1003E8002032184941F8223010BD7621144801F016
:1003F800F1FBE9E77721124801F0ECFBE7E7124B44
:10040800DA68D243C2F30222C2F104000F2121FAB2
:1004180002F263788340A1780A4013431B012278D3
:10042800DBB208490A4482F800332378580903F0FC
:100438001F03012202FA03F341F8203010BD00BF68
:100448009044000800E100E000ED00E010B504462B
:10045800504B984225D01433984222D014339842F6
:100468001FD0143398421CD01433984219D0143337
:10047800984216D01433984213D003F56273984209
:100488000FD0143398420CD01433984209D0143347
:10049800984206D01433984203D06F213E4801F0A9
:1004A80099FB236823F001031B041B0C2360002322
:1004B80023606360A360E360364B9C4221D0374BD6
:1004C8009C4224D0364B9C4227D0364B9C422AD0A3
:1004D800354B9C422DD0354B9C4230D0344B9C42FE
:1004E80033D0344B9C4236D0334B9C4239D0334BBB
:1004F8009C423CD0324B9C423FD0324B9C4242D033
:1005080010BD314A536843F00F03536010BD2E4AA3
:10051800536843F0F003536010BD2B4A536843F40B
:100528007063536010BD284A536843F470435360A6
:1005380010BD254A536843F47023536010BD224A06
:10054800536843F47003536010BD1F4A536843F067
:100558007063536010BD1D4A536843F00F03536026
:1005680010BD1A4A536843F0F003536010BD174A90
:10057800536843F47063536010BD144A536843F4DE
:100588007043536010BD114A536843F4702353609D
:10059800B6E700BF08000240B84400081C0002404B
:1005A8003000024044000240580002406C00024003
:1005B80080000240080402401C040240300402404B
:1005C8004404024058040240000002400004024073
:1005D80038B505460C46564B984225D014339842F8
:1005E80022D0143398421FD0143398421CD01433AD
:1005F800984219D01433984216D01433984213D025
:1006080003F5627398420FD0143398420CD0143318
:10061800984209D01433984206D01433984203D034
:10062800CF21444801F0D6FAA368102B01D0002B43
:100638005BD1E368013B4FF6FE7293425AD82369B7
:10064800402B01D0002B5AD16369802B01D0002B9D
:100658005AD1A3694BB1B3F5807F06D0B3F5007FBB
:1006680003D0D421334801F0B5FAE3694BB1B3F5AF
:10067800806F06D0B3F5006F03D0D5212D4801F067
:10068800A9FA236A202B01D0002B42D1636AB3F563
:10069800405F07D0B3F5005F04D0B3F5805F01D0A9
:1006A800002B3BD1A36AB3F5804F01D0002B3AD180
:1006B8002A6822F4FF4222F07002A368216A0B43E1
:1006C80021690B4361690B43A1690B43E1690B4342
:1006D800616A0B43A16A0B4313432B60E3686B60A9
:1006E8002368AB606368EB6038BDD021114801F026
:1006F80071FA9EE7D1210F4801F06CFA9FE7D221E9
:100708000C4801F067FA9FE7D3210A4801F062FA22
:100718009FE7D621074801F05DFAB7E7D7210548DA
:1007280001F058FABEE7D821024801F053FABFE7B2
:1007380008000240B844000838B504460D461F4B6F
:10074800984226D01433984223D01433984220D0AC
:10075800143398421DD0143398421AD01433984257
:1007680017D01433984214D003F56273984210D00E
:10077800143398420DD0143398420AD01433984257
:1007880007D01433984204D040F229110C4801F0E4
:1007980021FA012D04D94FF49571094801F01AFA8C
:1007A80035B9236823F001031B041B0C236038BDF3
:1007B800236843F00103236038BD00BF08000240EE
:1007C800B844000838B504460D46164B984226D062
:1007D8001433984223D01433984220D014339842CB
:1007E8001DD0143398421AD01433984217D01433BA
:1007F800984214D003F56273984210D0143398428B
:100808000DD0143398420AD01433984207D01433C9
:10081800984204D04FF4B271034801F0DBF96560E7
:1008280038BD00BF08000240B844000810B50446AF
:10083800164B984226D01433984223D0143398424A
:1008480020D0143398421DD0143398421AD0143350
:10085800984217D01433984214D003F56273984223
:1008680010D0143398420DD0143398420AD0143360
:10087800984207D01433984204D04FF4BB7104480F
:1008880001F0A8F9606880B210BD00BF08000240FE
:10089800B844000810B5044603792BB1042B03D0E3
:1008A8006A21304801F096F96379082B07D00C2BA0
:1008B80005D0102B03D06B212A4801F08BF9226850
:1008C800130D1B0503B91AB96C21264801F082F9EA
:1008D800A379012B03D96D21224801F07BF9A37973
:1008E800002B33D0204B1A68216822EA01021A60D3
:1008F8005A68216822EA01025A60227902F180428C
:1009080002F5823211682068014311609A682168F3
:1009180022EA01029A60DA68216822EA0102DA60B2
:100928006379102B08D003F1804303F582331A68EA
:1009380021680A431A6010BD0B4B9A6821680A4364
:100948009A60DA6821680A43DA6010BD237903F1F6
:10095800804303F582331A68216822EA01021A608B
:1009680010BD00BFE84400080004014010B504466B
:10097800431E012B33D9042831D008282FD0102842
:100988002DD020282BD0402829D0802827D0B0F57A
:10099800807F24D0B0F5007F21D0B0F5806F1ED0C5
:1009A800B0F5006F1BD0B0F5805F18D0B0F5005FD0
:1009B80015D0B0F5804F12D0B0F5004F0FD0B0F57C
:1009C800803F0CD0B0F5003F09D0B0F5802F06D09D
:1009D800B0F5002F03D0E521074801F0FBF8074ADE
:1009E800136823405269144202D01BB9002010BD7D
:1009F800002010BD012010BDE8440008000401409B
:100A080010B50446030D1B0503B918B9FC210348AA
:100A180001F0E0F8024B5C6110BD00BFE84400083B
:100A280000040140F8B505460C46484B98421BD0D7
:100A380003F58063984217D003F58063984213D07A
:100A480003F5806398420FD003F5806398420BD07A
:100A580003F58063984207D003F58063984203D07A
:100A6800B2213B4801F0B6F8E3788BB1042B0FD0E4
:100A7800282B0DD0482B0BD0142B09D0102B07D0C6
:100A88001C2B05D0182B03D0B321314801F0A2F854
:100A9800238893B1E37803F00F06304613F0100F64
:100AA80006D0A378013BDBB2022B0BD8A0783043E9
:100AB800237833B32E6800230BE0B421244801F0D7
:100AC80089F8E7E7BB21224801F084F8EEE76A617C
:100AD8000133072B14D801229A40218832EA0101F8
:100AE800F6D199000F278F4026EA070600FA01F190
:100AF8000E43E1782829EAD04829E9D12A61E7E7B5
:100B08002E602388FF2B20D96E68002302E06A61DB
:100B180015E00133072B17D803F1080101228A4099
:100B2800218832EA0101F4D199000F278F4026EA83
:100B3800070600FA01F10E43E1782829E7D0E178A9
:100B48004829E6D12A61E4E76E60F8BD0008014053
:100B58001C45000838B504460D462A4B98421CD05F
:100B680003F58063984218D003F58063984214D047
:100B780003F58063984210D003F5806398420CD047
:100B880003F58063984208D003F58063984204D047
:100B98004FF48F711C4801F01DF86B1E9BB2012B9E
:100BA80028D9042D26D0082D24D0102D22D0202D70
:100BB80020D0402D1ED0802D1CD0B5F5807F19D0B7
:100BC800B5F5007F16D0B5F5806F13D0B5F5006F79
:100BD80010D0B5F5805F0DD0B5F5005F0AD0B5F53A
:100BE800804F07D0B5F5004F04D040F21F110648DA
:100BF80000F0F0FFA3681D4201D1002038BD01209C
:100C080038BD00BF000801401C45000838B504463F
:100C18000D46144B98421CD003F58063984218D0B7
:100C280003F58063984214D003F58063984210D08E
:100C380003F5806398420CD003F58063984208D08E
:100C480003F58063984204D040F26911064800F029
:100C5800C1FF0DB1256138BD4FF4B571024800F0F0
:100C6800B9FFF7E7000801401C45000838B50446FD
:100C78000D46144B98421CD003F58063984218D057
:100C880003F58063984214D003F58063984210D02E
:100C980003F5806398420CD003F58063984208D02E
:100CA80003F58063984204D040F27911064800F0B9
:100CB80091FF0DB1656138BD4FF4BD71024800F078
:100CC80089FFF7E7000801401C45000870B5054694
:100CD8000C46062817D80F2C1BD804F003029200E4
:100CE8000F2000FA02F6A1080D4B023153F821003B
:100CF80020EA060043F8210053F8210095400543F7
:100D080043F8215070BD40F26521064800F062FFAB
:100D1800E1E740F26621034800F05CFFDDE700BF31
:100D2800000001401C4500080D4B1A6842F0010202
:100D38001A6059680B4A0A405A601A6822F084728D
:100D480022F480321A601A6822F480221A605A68E3
:100D580022F4FE025A604FF41F029A60704700BFE7
:100D6800001002400000FFF810B5044650B1B0F57D
:100D7800803F07D0B0F5802F04D040F211110F4802
:100D880000F028FF0E4B1A6822F480321A601A68A5
:100D980022F480221A60B4F5803F03D0B4F5802F86
:100DA80006D010BD064A136843F48033136010BDA3
:100DB800034A136843F4A023136010BD504500088C
:100DC8000010024038B50C46054650B1B0F5803FDA
:100DD80007D0B0F5403F04D040F27F111D4800F025
:100DE800F9FE74B3B4F5802F2BD0B4F5002F28D0BA
:100DF800B4F5402F25D0B4F5801F22D0B4F5A01F3C
:100E08001FD0B4F5C01F1CD0B4F5E01F19D0B4F53D
:100E1800001F16D0B4F5101F13D0B4F5201F10D042
:100E2800B4F5301F0DD0B4F5401F0AD0B4F5501FEB
:100E380007D0B4F5601F04D04FF4C071054800F026
:100E4800C9FE054B596821F47C112C432143596094
:100E580038BD00BF504500080010024010B50446D8
:100E6800012804D94FF4CA71024800F0B3FE024BBE
:100E78001C6010BD504500086000424210B5044691
:100E8800022806D8064A536823F003031C4354601B
:100E980010BD4FF40E71034800F09CFEF2E700BF4E
:100EA8000010024050450008024B586800F00C0042
:100EB800704700BF0010024010B50446A0B180285A
:100EC80012D0902810D0A0280ED0B0280CD0C0285E
:100ED8000AD0D02808D0E02806D0F02804D04FF453
:100EE8001971054800F076FE044A536823F0F003B0
:100EF8001C43546010BD00BF50450008001002405C
:100F080010B5044680B1B0F5806F0DD0B0F5A06F74
:100F18000AD0B0F5C06F07D0B0F5E06F04D040F24A
:100F28007E21054800F056FE044A536823F4E06326
:100F38001C43546010BD00BF50450008001002401B
:100F480010B5044680B1B0F5806F0DD0B0F5A06F34
:100F58000AD0B0F5C06F07D0B0F5E06F04D04FF4F9
:100F68002671054800F036FE044B586820F460509E
:100F780040EAC400586010BD504500080010024007
:100F880010B4294B5B6803F00C03042B2BD0082BFF
:100F98002CD013B1254B036001E0244B0360224998
:100FA8004B68C3F30313224CE35CDAB20368D34003
:100FB80043604A68C2F30222A25CD2B223FA02F268
:100FC80082604A68C2F3C222A25CD2B2D340C36034
:100FD8004A68C2F3813217498A5CD2B2B3FBF2F392
:100FE800036110BC7047114B0360D8E70E4A536881
:100FF8005268C3F38343023312F4803F09D00A4A8C
:10100800526812F4003F09D00B4A02FB03F3036055
:10101800C5E7094A02FB03F30360C0E7034A02FB82
:1010280003F30360BBE700BF0010024000127A0020
:10103800080000200400002000093D0038B50446DF
:101048000D4620F4AA6323F0070303B920B940F240
:101058002B410B4800F0BEFD012D04D940F22C4174
:10106800074800F0B7FD2DB9064A536923EA04047E
:10107800546138BD034B5A6914435C6138BD00BFE5
:10108800504500080010024038B504460D460E4B86
:10109800034003B920B940F24A410C4800F09AFDD8
:1010A800012D04D940F24B41084800F093FD2DB9B9
:1010B800074A936923EA0404946138BD044B9A698A
:1010C80014439C6138BD00BF0200C0FF50450008B2
:1010D8000010024038B504460D460E4B184200D1A8
:1010E80020B940F269410C4800F074FD012D04D983
:1010F80040F26A41084800F06DFD2DB9074AD369EE
:1011080023EA0404D46138BD044BDA691443DC6172
:1011180038BD00BF0036018150450008001002406C
:1011280038B504460D460E4B034003B920B940F2CA
:10113800A4410C4800F04EFD012D04D940F2A54110
:10114800084800F047FD2DB9074AD36823EA04048C
:10115800D46038BD044BDA681443DC6038BD00BF86
:101168000200C0FF504500080010024038B5044690
:101178000D460E4B184200D120B940F2C3410C482D
:1011880000F028FD012D04D940F2C441084800F0C0
:1011980021FD2DB9074A136923EA0404146138BDF7
:1011A800044B1A6914431C6138BD00BF0036018125
:1011B800504500080010024010B50446212818D0F8
:1011C800312816D0392814D0412812D0612810D0DF
:1011D8007A280ED07B280CD07C280AD07D2808D00D
:1011E8007E2806D07F2804D040F234510D4800F004
:1011F800F1FC6309012B0CD0022B0DD00A4B5B6A62
:1012080004F01F0423FA04F414F0010F07D100209E
:1012180010BD054B1B68F3E7034B1B6AF0E7012081
:1012280010BD00BF504500080010024000B583B053
:10123800002301933120FFF7BFFF019B0133019386
:10124800019BB3F5A06F01D00028F3D03120FFF740
:10125800B3FF18B9002003B05DF804FB0120FAE7DA
:101268002DE9F04105460C464A4B98420BD0A3F5B0
:101278007843984207D003F58063984203D0A321AE
:10128800454800F0A7FC238863B1B3F5806F09D007
:10129800B3F5004F06D0B3F5404F03D0A6213E4822
:1012A80000F098FC6388B3F5827F01D0002B5DD1F4
:1012B800A388B3F5006F01D0002B5CD1E3882BB174
:1012C800022B03D0A921344800F084FC2389012B88
:1012D80003D9AA21304800F07DFC6389B3F5007F6B
:1012E80001D0002B4CD1A3898BB1082B0FD0102B28
:1012F8000DD0182B0BD0202B09D0282B07D0302B42
:1013080005D0382B03D0AC21234800F063FCE389D7
:101318002BB1802B03D0AD211F4800F05BFC238A42
:10132800002B32D02B8803F44153B4F800C0B4F832
:101338000280B4F804E0E78826896089A189E289F7
:101348004CEA080C4EEA0C0E47EA0E073E433043BF
:1013580001430A4313432B80AB8B9BB223F40063F6
:101368009BB2AB83238A2B82BDE8F081A7210A4870
:1013780000F030FC9CE7A821074800F02BFC9DE713
:10138800AB21054800F026FCADE7AE21024800F08D
:1013980021FCC7E7003001408045000838B5044605
:1013A8000D46124B98420CD0A3F57843984208D0CA
:1013B80003F58063984204D040F2B7110C4800F05E
:1013C80009FC012D04D94FF4DC71094800F002FC36
:1013D80035B923889BB223F040039BB2238038BDE4
:1013E80023889BB243F04003238038BD003001407E
:1013F8008045000838B504460D46094B98420CD084
:10140800A3F57843984208D003F58063984204D046
:1014180040F23A21034800F0DDFBA58138BD00BF4A
:10142800003001408045000810B50446094B984239
:101438000CD0A3F57843984208D003F5806398420E
:1014480004D040F24A21044800F0C4FBA08980B2CD
:1014580010BD00BF003001408045000838B5054682
:101468000C46164B98420CD0A3F57843984208D006
:1014780003F58063984204D040F21631104800F01A
:10148800A9FB802C12D0402C10D0202C0ED0102C70
:101498000CD0082C0AD0042C08D0022C06D0012C21
:1014A80004D040F21731064800F094FB2B891C4207
:1014B80001D1002038BD012038BD00BF00300140F7
:1014C8008045000810B504462E4B984213D0A3F56A
:1014D800744398420FD003F5806398420BD003F50C
:1014E8008063984207D003F58063984203D0852132
:1014F800254800F06FFB234B9C420CD0234B9C42A9
:1015080014D0234B9C421CD0224B9C4224D0224B0B
:101518009C422CD010BD01214FF48040FFF700FE03
:1015280000214FF48040FFF7FBFD10BD01214FF46F
:101538000030FFF71BFE00214FF40030FFF716FEC6
:1015480010BD01214FF48020FFF710FE00214FF459
:101558008020FFF70BFE10BD01214FF40020FFF79C
:1015680005FE00214FF40020FFF700FE10BD012109
:101578004FF48010FFF7FAFD00214FF48010FFF7B9
:10158800F5FDC7E700380140B045000800440040B9
:1015980000480040004C00400050004030B587B083
:1015A80004460D46654B984213D0A3F57443984200
:1015B8000FD003F5806398420BD003F580639842FF
:1015C80007D003F58063984203D0B8215C4800F047
:1015D80001FB2B68013B5B4A934200F29480AB8885
:1015E80033B1B3F5805F03D0BA21554800F0F2FA61
:1015F800EB8863B1B3F5805F09D0B3F5005F06D01F
:10160800B3F5405F03D0BB214D4800F0E3FA2B89C6
:101618004BB1B3F5806F06D0B3F5C06F03D0BC21D2
:10162800474800F0D7FA6A8922F00C039BB203B945
:101638001AB9BD21424800F0CDFAAB8963B1B3F5C0
:10164800807F09D0B3F5007F06D0B3F5407F03D083
:10165800BE213B4800F0BEFAAB8973B1374B9C42C0
:101668000BD0A3F574439C4207D003F580639C42DA
:1016780003D0C221324800F0ADFA238A9BB2EA882F
:1016880023F4405313432382A3899BB2A988288952
:101698006A8901430A4323F4B05323F00C0313432C
:1016A800A381A38A9BB2AA8923F440731343A3821C
:1016B80001A8FFF765FC214B9C4229D0039BA28916
:1016C80012F4004F26D103EB830303EB830329684D
:1016D8008900B3FBF1F11C4BA3FB01235809050159
:1016E800642300FB1313A28912F4004F1BD11B01C2
:1016F8003233154AA2FB0323C3F343132B439BB294
:10170800238107B030BDB9210D4800F063FA66E7C0
:10171800049BD4E703EB830303EB830329684900A5
:10172800B3FBF1F1D7E7D9003231074AA2FB013107
:10173800C1F3421245EA0203E1E700BF0038014065
:10174800B04500081FAA44001F85EB5138B5044670
:101758000D46164B984214D0A3F57443984210D006
:1017680003F5806398420CD003F58063984208D053
:1017780003F58063984204D04FF4B1710C4800F02F
:1017880029FA012D04D940F26311094800F022FA20
:1017980035B9A3899BB223F400539BB2A38138BD0A
:1017A800A3899BB243F40053A38138BD003801409C
:1017B800B045000870B504460D461646374B9842AA
:1017C80014D0A3F57443984210D003F5806398426F
:1017D8000CD003F58063984208D003F580639842E3
:1017E80004D040F289112E4800F0F4F9282D1ED0BB
:1017F80040F227739D421AD040F226639D4216D0CC
:1018080040F225539D4212D040F224439D420ED00F
:1018180040F646039D420AD040F66A139D4206D020
:10182800602D04D04FF4C5711D4800F0D3F9012E86
:1018380004D940F28B111A4800F0CCF940F66A132B
:101848009D4211D0C5F3421205F01F05012303FA8A
:1018580005F59A4219D0022A19D01434CEB9236852
:1018680023EA0505256070BD0C4B9C42EAD0A3F520
:1018780074439C42E6D003F580639C42E2D040F278
:101888008F11074800F0A6F9DCE70C34E6E71034BE
:10189800E4E723681D43256070BD00BF00380140A0
:1018A800B045000870B505460C4616461A4B9842D6
:1018B80014D0A3F57443984210D003F5806398427E
:1018C8000CD003F58063984208D003F580639842F2
:1018D80004D040F2C311114800F07CF924F0C00391
:1018E8009BB203B924B94FF4E2710C4800F072F9C5
:1018F800012E04D940F2C511084800F06BF92EB941
:10190800AB8AE443A4B21C40AC8270BDAB8A9BB2E4
:101918001C43AC8270BD00BF00380140B0450008D0
:1019280038B504460D46124B984214D0A3F57443BB
:10193800984210D003F5806398420CD003F5806379
:10194800984208D003F58063984204D040F25F21A2
:10195800084800F03FF9B5F5007F03D2C5F3080544
:10196800A58038BD4FF41871024800F033F9F5E747
:1019780000380140B045000810B504460D4B9842A8
:1019880014D0A3F57443984210D003F580639842AD
:101998000CD003F58063984208D003F58063984221
:1019A80004D04FF41C71044800F014F9A088C0F367
:1019B800080010BD00380140B045000838B505469C
:1019C8000C46274B984214D0A3F57443984210D084
:1019D80003F5806398420CD003F58063984208D0E1
:1019E80003F58063984204D040F286311D4800F028
:1019F800F1F8012C18D0802C16D0402C14D0202CB3
:101A080012D0102C10D0B4F5807F0DD0B4F5007F23
:101A18000AD0082C08D0042C06D0022C04D040F29E
:101A28008731104800F0D6F8B4F5007F04D02B8831
:101A38001C4212D1002038BD094B9D42F7D0A3F5B6
:101A480074439D42F3D003F580639D42EFD040F28A
:101A58008B31044800F0BEF8E9E7012038BD00BF2B
:101A680000380140B045000838B505460C463C4BE7
:101A7800984214D0A3F57443984210D003F58063BC
:101A880098420CD003F58063984208D003F5806330
:101A9800984204D040F2D931324800F09BF8282C03
:101AA80025D040F227739C4221D040F226639C4205
:101AB8001DD040F225539C4219D040F224439C4249
:101AC80015D040F646039C4211D040F66A139C425A
:101AD8000DD0B4F5587F0AD0B4F5187F07D0B4F507
:101AE800B07F04D040F2DA311E4800F073F840F6B7
:101AF8006A139C4217D0C4F3421204F01F01012359
:101B08008B40012A20D0022A22D0AA8A92B21340FE
:101B1800240A012202FA04F42A8892B21440DBB1A2
:101B2800E4B9002038BD0E4B9D42E4D0A3F57443C0
:101B38009D42E0D003F580639D42DCD040F2DE3167
:101B4800084800F047F8D6E7AA8992B21340DFE7C1
:101B58002A8A92B21340DBE7002038BD012038BD45
:101B680000380140B0450008FEE7000008B503480A
:101B780000F052F80120FFF7F7FF00BFE445000826
:101B880008B503460C4A12685AB10B4A1068033369
:101B980023F003030344094A934206D8064A136014
:101BA80008BD0749044A1160EFE701F013FB0C2355
:101BB80003604FF0FF3008BD18020020004C0020E1
:101BC800E83A002001230360014B0B60704700BF17
:101BD8001800002008B50A460146024800F004F83B
:101BE800FFF7C4FFF84500080FB400B583B004AB95
:101BF80053F8042B01938021064801F079FB002853
:101C080003DD0146034800F047F803B05DF804EB34
:101C180004B070472002002010B5044601F018FBFC
:101C28000146204600F038F80121024800F034F857
:101C380010BD00BFBC4600082DE9F04385B004463E
:101C48000F4643560BB10E461EE004252846214692
:101C5800ABBE0446384605B0BDE8F08314F9011B55
:101C680004AA1A4402F8101C0133AB42F6D304AAA2
:101C78001344002203F8102CE9464FF004084046AC
:101C88004946ABBE8046761B002EE3D03546102E63
:101C980028BF10250023E8E708B5FFF7CDFF08BDEA
:101CA80008B500F0FDF8024B024A9A6008BD00BF73
:101CB80000ED00E00000000808B500F019F908BDC3
:101CC800F8B504460D4617461E462748FFF78CFF11
:101CD80021682648FFF788FF61682548FFF784FFD9
:101CE800A1682448FFF780FFE1682348FFF77CFFDD
:101CF80021692248FFF778FF61692148FFF774FFDF
:101D0800A1692048FFF770FFE1691F48FFF76CFFE2
:101D18001E48FFF769FF29461D48FFF765FF1D4C60
:101D2800E16A1D48FFF760FF216B1C48FFF75CFF65
:101D3800E16B1B48FFF758FF15F0800F0AD115F427
:101D4800004F0CD11748FFF74FFF06991648FFF7C9
:101D58004BFFF8BD39461548FFF746FFEFE7314618
:101D68001348FFF741FFEDE7244600083446000812
:101D780044460008544600086446000874460008B3
:101D88008446000894460008A4460008B4460008A3
:101D9800C046000800ED00E0D0460008E046000814
:101DA800F0460008204700082847000800470008B8
:101DB8001047000883691A888A4201D000207047BA
:101DC8000268033A012A03D802338361012070476D
:101DD8000020704782B00023019300932C4A1368B7
:101DE80043F4803313602A4B1B6803F400330093D9
:101DF800019B01330193009B1BB9019BB3F5A06FB5
:101E0800F1D1234B1B6813F4003F06D00123009344
:101E1800009B012B04D002B0704700230093F7E722
:101E28001C4B1A6842F010021A601A6822F003026A
:101E38001A601A6842F002021A60A3F580535A68C1
:101E48005A605A685A605A6842F480625A605A68FE
:101E580022F47C125A605A6842F4E8125A601A68EE
:101E680042F080721A600A4B1B6813F0007FFAD0A8
:101E7800074B5A6822F003025A605A6842F002027D
:101E88005A60034B5B6803F00C03082BF9D1C2E7D7
:101E9800001002400020024008B5FFF79BFF08BD74
:101EA80008B5104B1A6842F001021A6059680E4AC8
:101EB8000A405A601A6822F0847222F480321A604A
:101EC8001A6822F480221A605A6822F4FE025A60C4
:101ED8004FF41F029A60FFF7DFFF4FF00062034BD9
:101EE8009A6008BD001002400000FFF800ED00E015
:101EF8001F4B5B6803F00C03042B15D0082B17D07D
:101F08001BB11C4A1C4B1A6002E01A4A1A4B1A6091
:101F1800174B5B68C3F30313184AD35CDAB216494C
:101F28000B68D3400B607047124A134B1A60EFE7F7
:101F38000F4A53685268C3F38343023312F4803F55
:101F48000AD00B4A526812F4003F0BD00C4A02FB2D
:101F580003F3094A1360DBE7094A02FB03F3064A65
:101F68001360D5E7034A02FB03F3034A1360CFE784
:101F78000010024000127A003000002020000020EB
:101F880000093D0010B582B001211020FFF77CF850
:101F980001210520FFF778F810238DF807304FF45A
:101FA800C043ADF8043002238DF806300C4C01A96B
:101FB8002046FEF737FD4FF400512046FEF726FE77
:101FC80004238DF807300123ADF8043003238DF87E
:101FD800063001A90348FEF725FD02B010BD00BF79
:101FE800001001400008014008B5052000F036FA4D
:101FF80001210448FEF7AEFD012801D0002008BDEC
:10200800012008BD0008014010B503280ED8DFE8FC
:1020180000F002121E2A1A4C4FF400512046FEF717
:1020280025FE4FF480412046FEF720FEFFF7DCFF37
:102038000028FBD010BD124C4FF400512046FEF78B
:10204800E5FD4FF480412046FEF710FEEEE70C4C0C
:102058004FF400512046FEF709FE4FF48041204618
:10206800FEF7D4FDE2E7064C4FF400512046FEF798
:10207800CDFD4FF480412046FEF7C8FDD6E700BFEE
:102088000010014070B506460D460320FFF7BCFF5F
:10209800FFF7AAFF0028FBD000240BE080210948A5
:1020A800FFF78CFC0028F9D0315D0648FFF738FCB3
:1020B8000134E4B2AC42F1D3FFF796FF0028FBD01D
:1020C80070BD00BF0044004010B504460621054815
:1020D800FFF7D8FF2046FFF797FFFFF785FF002897
:1020E800FBD010BD340000202DE9F04F83B08A46A4
:1020F80014461D46084600F065FD074604FB05F337
:1021080003EB43035A00B2FBFAF3D9B200910AFB7E
:1021180013231BB10B460133DBB20093009800F088
:10212800B5F90128FAD0FFF75FFF0028FBD000209F
:10213800FFF76AFFFFF758FF0028FBD09DF8303003
:10214800012B56D0384600F04BFD03B0BDE8F08FA8
:1021580080213148FFF732FC0028F9D02F4B195D58
:102168002D48FFF7DDFB0134A4B2032CF0D900257C
:1021780014E00AFB09F42A4BA3FB043405EB94048E
:102188003B5D1E44B6B280212348FFF717FC0028A8
:10219800F9D0395D2048FFF7C3FB01354545E8D341
:1021A80080211D48FFF70AFC0028F9D0F1B21A482F
:1021B800FFF7B6FBFFF718FF0028FBD009F101096C
:1021C8001FFA89F9B9F1040F16D80BF1010B1FFAA0
:1021D8008BFB124B0A221A70A0225A70104AA2FBDB
:1021E8000A284FEA980883F8028083F803B000248D
:1021F800BBE70026B3460196019B009A9342A1D201
:10220800019B013301931FFA8AF21903384600F043
:10221800D7FE4FF00009D5E700440040C81D002054
:10222800CDCCCCCC70B582B006460D464FF480605C
:1022380000F0C8FC044601230093F3B22A464FF489
:102248007F71FFF751FF204600F0CAFC02B070BD55
:1022580030B587B0012141F20500FEF715FF1823BC
:102268008DF81730A023ADF8143003258DF81650DB
:102278001A4C05A92046FEF7D5FB48238DF81730E0
:102288004023ADF814308DF8165005A92046FEF706
:10229800C9FB0823ADF80C300023ADF80430ADF8C5
:1022A8000030ADF80E300722ADF81020ADF8083038
:1022B800ADF806304FF48273ADF802304FF4007376
:1022C800ADF80A3004F5205469462046FEF7C8FFE9
:1022D80001212046FFF762F807B030BD0008014031
:1022E80030B587B001210820FEF7CEFE01214FF45A
:1022F8008040FEF7EFFE18238DF817304FF4204387
:10230800ADF8143003258DF816501C4C05A920464D
:10231800FEF788FB48238DF817304FF48043ADF85B
:1023280014308DF8165005A92046FEF77BFB0823CC
:10233800ADF80C300023ADF80430ADF80030ADF83E
:102348000E300723ADF810300125ADF808500223F0
:10235800ADF806304FF48273ADF802304FF40073D5
:10236800ADF80A30A4F5544469462046FEF778FFD4
:1023780029462046FFF712F807B030BD000C01408F
:1023880038B50546002402211048FFF767F80128F0
:1023980005D00134E4B2642CF5D9002038BD2946B3
:1023A8000A48FFF727F8002401210848FFF756F8E4
:1023B800012805D00134E4B2642CF5D9002038BDD9
:1023C8000248FFF731F8C0B238BD00BF0030014005
:1023D80038B50546002402211048FFF73FF80128C8
:1023E80005D00134E4B2642CF5D9002038BD294663
:1023F8000A48FEF7FFFF002401210848FFF72EF8DE
:10240800012805D00134E4B2642CF5D9002038BD88
:102418000248FFF709F8C0B238BD00BF00380040D5
:102428000A4B1B680A4AA2FB03239B09013BB3F131
:10243800807F09D2074A5360F021074B83F82310A5
:102448000023936007231360704700BF300000200B
:10245800D34D621010E000E000ED00E0034B18607F
:10246800024B1B68002BFBD1704700BFE41D002006
:10247800034B1B681BB1024A1368013B136070478A
:10248800E41D002008B5FFF7F3FF08BD08B5074BAA
:102498001880074B1B88984201D9012008BD00F01D
:1024A800D8F90020024B188008BD00BFBC030020EB
:1024B800A002002008B5FFF7B5FE08BD304B5B88C9
:1024C8000BB90020704770B582B00C4605462D4EFA
:1024D80031462D48FFF788FB2C49304600F0C0FEF6
:1024E80080B101232B7004F108030093231D2246B9
:1024F8002749304600F080FE0022214B5A800120F7
:1025080002B070BD23491F4800F0AAFE38B102236B
:102518002B70224620491B4800F06EFEECE71F494D
:10252800184800F09DFE38B103232B7022461C4941
:10253800144800F061FEDFE71A49124800F090FEE7
:1025480038B104232B70224617490E4800F054FE78
:10255800D2E716490B4800F083FE38B105232B70EB
:1025680022461349074800F047FEC5E711490548C8
:1025780000F076FE0028BFD006232B70BCE700BF12
:10258800BC030020C00300206C4700087C470008FB
:1025980090470008B0470008C8470008E44700080B
:1025A800FC470008184800082C4800084448000860
:1025B8005C480008744800080022084B1A8006E0AE
:1025C800074A1A44002111710133044A1380034B4E
:1025D8001B88B3F5007FF3D3704700BFE81D0020C8
:1025E800BC03002010B586B001A90DF11700FFF754
:1025F80065FFC0B19DF81730013B052B11D8DFE806
:1026080003F003141F1010220298174CA4F80402B8
:1026180000F065F9039AC4F8082202991348FFF7F5
:10262800E3FAFFF7C9FF06B010BD00F005F910483E
:10263800FFF7DAFA4FF480510120FFF73BFFF0E78C
:1026480000F007F9EDE70020FFF7DEFC00F0F4F8F2
:102658000748FFF7C9FA4FF480510120FFF72AFF16
:102668000220FFF7D1FCDCE7BC0300208C480008FF
:10267800BC48000808B5FEF757FB4FF48030FEF75A
:1026880073FBFEF7D3FD124B187001280CD03920CC
:10269800FEF792FD0028FAD00220FEF7EFFBFEF7C6
:1026A80003FC0828FBD108BD0020FEF705FC4FF409
:1026B8008060FEF725FC0020FEF742FC4FF4E01195
:1026C8004FF48030FEF77EFB0120FEF7C7FBDEE704
:1026D800EA1D002008B54FF44070FDF749FE08BD1B
:1026E80030B585B001210520FEF7CEFC04238DF816
:1026F8000F304FF4C053ADF80C3003238DF80E3073
:1027080003A91248FEF78EF90B210020FEF7DEFA26
:102718004FF40063019301258DF80A5000248DF8C9
:1027280008400C238DF8093001A8FEF7B3F82823D8
:102738008DF800308DF803508DF801408DF8024077
:102748006846FDF735FE05B030BD00BF0008014002
:1027580038B540F08005094C10212046FEF786FA6E
:102768002846FFF70DFEFF20FFF70AFE0546102159
:102778002046FEF74BFA284638BD00BF0008014046
:1027880008B506E00748FFF72FFA4FF4FA70FFF78D
:1027980065FE0F20FFF7DCFF1B28F3D10248FFF787
:1027A80023FA08BDF84800080C49000830B583B082
:1027B80001210420FEF768FC10248DF80740ADF8CD
:1027C800044003238DF80630074D01A92846FEF77B
:1027D80029F921462846FEF719FAFFF739FDFFF7D0
:1027E800CFFF03B030BD00BF0008014008B5172077
:1027F800FFF7AEFF08BD08B51320FFF7A9FF08BD16
:1028080070B50D4600F07F06074C10212046FEF7F4
:102818002DFA3046FFF7B4FD2846FFF7B1FD102129
:102828002046FEF7F3F970BD0008014008B5FF2106
:102838003E20FFF7E5FF08BD08B5FFF7F7FF1820B2
:10284800FFF786FF60F07F01C9B21820FFF7D8FFB5
:1028580008BD08B5FFF7EAFF1820FFF779FF00F079
:102868007F011820FFF7CCFF08BD08B5B0F5486F09
:1028780026D00DDCB0F5487F18D0B0F5C86F1AD057
:10288800B0F5C87F2AD105211B20FFF7B9FF08BD85
:10289800B0F5485F19D0B0F5C84F1BD0B0F5C85F88
:1028A8001CD10D211B20FFF7ABFF08BD06211B2003
:1028B800FFF7A6FF08BD07211B20FFF7A1FF08BDF2
:1028C8000C211B20FFF79CFF08BD0E211B20FFF7E2
:1028D80097FF08BD0F211B20FFF792FF08BD10B519
:1028E80004460C20FFF734FF40F04001C9B219201C
:1028F800FFF786FF0C20FFF72BFF1920FFF728FFB3
:1029080000F0BF011920FFF77BFF00211820FFF717
:1029180077FF40211820FFF773FF10211820FFF7D9
:102928006FFF20211820FFF76BFF2046FFF79DFF60
:102938001B20FFF70DFF40F06001C9B21B20FFF715
:102948005FFF1C20FFF704FF40F03801C9B21C20CC
:10295800FFF756FF1D20FFF7FBFE40F03F01C9B20D
:102968001D20FFF74DFF1F20FFF7F2FE40F040014A
:10297800C9B21F20FFF744FF3A20FFF7E9FE60F0D5
:102988005501C9B23A20FFF73BFF3B20FFF7E0FEB5
:1029980060F05F01C9B23B20FFF732FF1820FFF754
:1029A800D7FE40F01001C9B21820FFF729FFFFF742
:1029B80097FE10BD70B506460D4610210B48FEF770
:1029C80055F9BF20FFF7DCFC002405E0FF20FFF7E6
:1029D800D7FC30550134A4B2AC42F7D310210348D8
:1029E800FEF714F9FFF722FF70BD00BF0008014091
:1029F80008B54FF40060FDF7B9FF10BBFFF7F6FE0E
:102A0800FFF7F9FE1E4B1B7803BB4FF47F711D487F
:102A1800FFF7D0FF1C4A1388013313800122184B9B
:102A28001A70174B1B78012B1DD0174B19880139C9
:102A380009034FF47F7201F58051144800F060FBE0
:102A480008BD4FF40060FDF7DBFFD7E74FF47F7157
:102A58000E48FFF7AFFF0C4A13880133138000229A
:102A6800074B1A70DDE7084B1988013909034FF441
:102A78007F7201F58051034800F042FB08BD00BF9A
:102A8800A2020020EC1D0020A0020020E821002066
:102A980008B5FFF7EFFDFFF71DFE124B1968124846
:102AA800FFF7A2F8FFF7BCFC4FF4E13000F0A4F800
:102AB80000F0F6F80D4800F06FF900F02DFA1E202E
:102AC80000F078FBFFF772FE4FF4C850FFF707FFDE
:102AD800FFF758FA0220FFF7F7FA0548FFF782FDDB
:102AE800FBE700BF30000020244900086C000240CA
:102AF800C003002001E001701A46531E002AFAD1D3
:102B08007047000008B5062200210648FFF7F2FFCB
:102B18004FF4C05200210448FFF7ECFF0122034B99
:102B28001A7008BDCC1D0020C8050020A302002093
:102B3800B0F5C05F02D94FF0FF30704738B5054691
:102B4800114B1B784BB1C5F38F24C5F309050DB1A3
:102B58000134A4B20523002207E0FFF7D3FFF2E710
:102B68000022944209D0013B9BB218460749C95C30
:102B78000029F5D1013292B2F3E7002CF3D00122FB
:102B8800024B1A54800238BDA3020020CC1D00203D
:102B98000A4B1B781BB1B0F5C05F02D3022318465D
:102BA8007047800A83B2052B01D90223F7E718463C
:102BB8000022034B1A540123F1E700BFA3020020AF
:102BC800CC1D002008B5FFF7B3FFB0F1FF3F02D0DE
:102BD800024B184408BD002008BD00BFC8050020EE
:102BE80030B108B503460348181AFFF7D1FF08BDEE
:102BF800704700BFC805002070B586B006460121A1
:102C080044F20400FEF740FA18238DF817304FF409
:102C18000073ADF8143003248DF816401E4D05A935
:102C28002846FDF7FFFE04238DF817304FF4806324
:102C3800ADF814308DF8164005A92846FDF7F2FEC8
:102C480025238DF8003001258DF803508DF80140BB
:102C58008DF802406846FDF7ABFB01960023ADF8FE
:102C680010300C22ADF80E20ADF80A30ADF80C305B
:102C7800ADF80830094C01A92046FEF78FFC2A461A
:102C880040F225512046FEF795FD29462046FEF7DD
:102C98005DFD06B070BD00BF00080140003801406E
:102CA800F0B587B001210520FEF7EEF901214FF4B8
:102CB8000030FEF70FFA254D2846FEF703FC1823CF
:102CC8008DF817300427ADF8147003268DF81660B8
:102CD8001F4C05A92046FDF7A5FE8DF8177008239F
:102CE800ADF814308DF8166005A92046FDF79AFE58
:102CF80026238DF8003001268DF8036007238DF810
:102D0800013000248DF802406846FDF751FB4FF46E
:102D180016530193ADF810400C23ADF80E30ADF802
:102D28000A40ADF80C40ADF808400DEB0701284605
:102D3800FEF734FC324640F224412846FEF73AFDBD
:102D480031462846FEF702FD07B0F0BD00440040BA
:102D580000080140F0B58DB004460F4616461D46E2
:102D680001210846FEF76AF92046FDF76FFB019737
:102D780002960023039304950593802206920993F3
:102D88004FF480520A920B930893079301A92046A7
:102D9800FDF71EFC0DB0F0BD10B504464FF480736E
:102DA800064A0749FFF7D6FF012240210548FEF7EA
:102DB80079FD01212046FDF7BFFC10BDE429002064
:102DC800044400400044004008B540F22551194829
:102DD800FEF74AFE00B908BD1648FEF7CDFDC0B2A1
:102DE800154B1B8813F4004FF5D113F4804F0CD00A
:102DF8000A2803D00022104B1A8008BD6FEA43430B
:102E08006FEA53430C4A138008BD0D280DD0C3F355
:102E18000D020A49885401339BB2074A1380FF2BDD
:102E2800D9D90022044B1A80D5E743F48043024ADB
:102E3800138008BD00380140D21D0020B8020020D0
:102E480010B540F224411148FEF70EFE00B910BD3E
:102E58000E48FEF791FD0E4C00212046FDF76CFC54
:102E68002046FDF7E3FCC0F5807292B20948428023
:102E78000949043000F0B4F94FF480712046FDF799
:102E8800A1FC01212046FDF757FCE0E70044004083
:102E98006C000240BC030020E429002038B50A4C2D
:102EA8004FF480512046FDF7E1FE0520FFF790FA28
:102EB800FF20FFF78DFA05464FF480512046FDF7B5
:102EC800A5FE284638BD00BF000C014038B5114D9D
:102ED8004FF480512846FDF7C9FE9020FFF778FA95
:102EE8000020FFF775FA0020FFF772FA0020FFF7BD
:102EF8006FFAFF20FFF76CFA0402A4B2FF20FFF775
:102F080067FA80B204434FF480512846FDF77EFEED
:102F1800204638BD000C014030B583B0012108209F
:102F2800FEF7B2F810238DF807304FF48055ADF84E
:102F3800045003238DF80630104C01A92046FDF7F4
:102F480071FD29462046FDF761FE29462046FDF71A
:102F58005DFEFFF7C5F906E00948FEF745FE4FF4A8
:102F6800FA70FFF77BFAFFF7B1FF064B1B88984210
:102F7800F2D10548FEF738FE03B030BD000C014021
:102F88003C4900083A0000205449000810B5074C95
:102F98004FF480512046FDF769FE0620FFF718FA26
:102FA8004FF480512046FDF731FE10BD000C014062
:102FB80008B5FFF773FF10F0010FFAD108BD000044
:102FC80070B506460C4615464FF480510F48FDF77C
:102FD8004DFE0320FFF7FCF9C4F30740FFF7F8F9AB
:102FE800C4F30720FFF7F4F9E0B2FFF7F1F9002482
:102FF80004E0FF20FFF7ECF930550134AC42F8D378
:103008004FF480510148FDF701FE70BD000C0140EE
:1030180070B506460C461546FFF7B8FF4FF48051C9
:103028001048FDF723FE0220FFF7D2F9C4F307404A
:10303800FFF7CEF9C4F30720FFF7CAF9E0B2FFF7AC
:10304800C7F9002404E0305DFFF7C2F90134A4B2E7
:10305800AC42F8D34FF480510248FDF7D7FDFFF793
:10306800A7FF70BD000C0140F8B507460E4615468F
:103078000F4B1B88B1FBF3F403FB1414A4B21B1B06
:103088009CB2944202D9144600E02C4622463146AE
:103098003846FFF7BDFFA54208D0274426442C1B1D
:1030A800A5B2034B1C88A542F0D8EEE7F8BD00BFD7
:1030B8003E00002038B50403FFF768FFFFF778FFEC
:1030C8000E4D4FF480512846FDF7D0FD2020FFF724
:1030D8007FF9C4F30740FFF77BF9200A00F0F000FE
:1030E800FFF776F90020FFF773F94FF4805128466F
:1030F800FDF78CFDFFF75CFF38BD00BF000C0140F9
:103108002DE9F047064689469046284B1B88B1FBB7
:10311800F3F297B203FB121295B25B1B9CB24445C3
:1031280028D3444626E09C4238D93846FFF7C2FFE8
:10313800002305E05919F05C1D4A885401339BB2FD
:103148009C42F7D8194B19880A460AFB01F118481E
:10315800FFF78AFFA04527D00137BFB22644A14414
:10316800A8EB04081FFA88F8104B1C88A04500D863
:1031780044460025BA460D4B19880A4607FB01F15B
:103188000B48FFF71DFF00239C42CCD95A19084968
:10319800525CFF2AC7D101339BB2F5E72246494664
:1031A8003046FFF761FFD5E7BDE8F0873C00002017
:1031B800E42A002038B50546002403E0A0B2FFF752
:1031C80079FF0134AC42F9DB0148FEF70DFD38BD4B
:1031D8006C490008014B1868704700BF4000002088
:1031E80010B5431E0A44914200D110BD11F8014B9D
:1031F80003F8014FF7E700000EB44FF4017230B541
:103208009CB01FAC54F8045BADF8142002900690F3
:1032180000F01EF80B4B03900B9300230F931493AD
:103228004FF6FF7307900848ADF816302A46234634
:1032380002A90068019400F013FA1CB0BDE8304000
:1032480003B0704755320008400000200020704746
:10325800034613F8012B002AFBD1181A01387047CE
:10326800F0B5037833B1034618465E1C1B7833B9B2
:103278001846F0BD0B78002B18BF0020F0BD4D1E7E
:10328800441E15F8012F002AF3D014F8017F3346A5
:103298009742F6D0E8E730B5141E05469BB01846AD
:1032A80005DA8B234FF0FF302B601BB030BD4FF495
:1032B8000273ADF80C300CBF234604F1FF330293C0
:1032C80005934FF6FF7300910491ADF80E30024656
:1032D8001E9B6946284600F075F8431CBCBF8B232B
:1032E8002B60002CE1D00022009B1A70DDE7000063
:1032F80007B5009313460A46014603480068FFF7DE
:10330800CAFF03B05DF804FB400000202DE9F04738
:103318008E6882469E420C469146984635D88A89E0
:1033280012F4906F31D00223256809696F1A656914
:1033380005EB450595FBF3F508F101033B449D4278
:1033480038BF1D46530531D5294600F0F1FF064622
:1033580050B90C23CAF80030A3894FF0FF3043F06E
:103368004003A381BDE8F0873A462169FFF738FF9B
:10337800A38923F4906343F08003A38126613E442C
:10338800266046466561ED1BA560464528BF464652
:1033980049463246206800F065FFA36800209B1B61
:1033A800A36023681E442660BDE8F0872A4601F022
:1033B8001DF806460028E1D12169504600F06CFF4F
:1033C800C7E700002DE9F04F9DB003938B89804635
:1033D8001C060D4616460FD50B696BB9402100F047
:1033E800A7FF2860286128B90C23C8F800304FF0DF
:1033F800FF30C4E040236B610023099320238DF83C
:10340800293030234FF0010B8DF82A3037463C46DF
:1034180014F8013B002B3CD1B7EB060A0BD05346FE
:10342800324629464046FFF771FF013000F0A2807E
:10343800099B534409933B78002B00F09B800023A1
:103448004FF0FF3204930793059206938DF853309B
:103458001A9305222178504800F0F6FE671C049B59
:10346800D8B9D90644BF20228DF853201A0744BF83
:103478002B228DF8532022782A2A16D000210A20E0
:10348800079A27463B780134303B092B50D9C9B1FC
:1034980011E0252BC0D02746B9E73F4A3C46801AA1
:1034A8000BFA00F018430490D3E7039A111D126831
:1034B8000391002A01DB079204E0524243F0020321
:1034C800079204933B782E2B0DD17B78791C2A2BFD
:1034D80032D1039B02371A1D1B680392002BB8BF19
:1034E8004FF0FF3305932D4C03223978204600F026
:1034F800ABFE38B14023001B03FA00F0049B0137F0
:10350800034304933978062225487E1C8DF8281039
:1035180000F09AFE002835D0224BFBB9039B0733F5
:1035280023F0070308330393099B4B4409936DE782
:1035380000FB02320121A4E700230A241846059360
:103548000F463A780131303A092A03D9002BCAD0FC
:103558000590C8E704FB00200123F1E703AB0093C3
:103568002A46114B04A94046AFF30080B0F1FF3F53
:103578008146D9D1AB895B063FF539AF09981DB0B3
:10358800BDE8F08F03AB00932A46074B04A94046D9
:1035980000F032FAEAE700BF844900088A490008C7
:1035A8008E490008000000001533000838B54B1C90
:1035B800144603D14FF0FF35284638BD9389CDB264
:1035C80023F020039381536B52688BB1A36B9A420B
:1035D80008DA23685A1E226003F8015C6368013325
:1035E8006360E9E7214600F0D3FD0028F1D0E1E768
:1035F8002169236851B1994208D213F8011C8D4200
:1036080004D1013B013223606260D5E7E36304F132
:10361800440363630323A3632346226403F8465FDA
:1036280023600123DCE710B50C46496B69B104F14E
:103638004403994201D000F02FFE0020236C606300
:10364800636013B1E36B236010BD23694FF0FF3053
:10365800236000236360A38943F02003A38110BD86
:103668002DE9F04FADF5257D0193002306460C4664
:1036780092460A27469347939F4B0DF10C08A29355
:103688009E4BDFF87C92CDF82081A3939AF8003006
:10369800002B00F02F8100F0B7FD9AF800B05844D5
:1036A800437813F0080343D1BBF1250F0AF1010554
:1036B80040F09980459343939AF801302A2B03D11F
:1036C80010230AF1020543932978AA46A1F1300292
:1036D800092A05F1010541D90322894800F0B4FD02
:1036E80038B1A0EB09030120AA469840439B184330
:1036F80043909AF800300AF10105672B4AD8652BE8
:1037080080F0B780472B2FD8452B80F0B280002B54
:1037180000F08280252B66D003234497499345E027
:10372800479901330131479161682360013961602C
:103738006368002B0BDD00F067FD236819780844E7
:1037480041780D07ECD40AF10105AA469EE7A39B30
:103758002146304698470028EDD0F4E7459B07FB03
:103768000313303B4593AFE75B2B61D00CD8582B44
:10377800D2D1439A42F400724392102244926F2BA2
:10378800B4BF0323042310E0632B5CD0642BC3D1A4
:103798004497F4E7702B42D01DD86E2B59D043D8EC
:1037A800692BB9D100234493032349936368002B01
:1037B80061DD439B59066FD5499B022B7CDC01AB2D
:1037C800224643A9304600F037FA012800F09280DB
:1037D8000228BAD11DE0752BDAD0782BC9D0732B0B
:1037E8009AD10223E1E76368002B0CDD23681A787D
:1037F80093457FD1013362682360479B013A0133C7
:1038080062604793A1E7A39B21463046984700286A
:10381800ECD04698002863D14FF0FF3066E0439A19
:1038280042F020024392A4E7082344930423BCE710
:103838002946404600F05AFB439B054643F04003A7
:1038480043930123B1E7439B43F040034393002391
:10385800ABE7439AD0063FF578AF12F0010F019A13
:10386800479B02F104010191126814BF1380136091
:103878006BE7052399E7A39B214630469847002824
:1038880097D0C6E7479A013247926268013A002A00
:1038980062600ADD0133236000F0B6FC23681A7801
:1038A800104442781207EDD486E7A39B21463046A0
:1038B80098470028F0D0ACE7042B06DC01AB224681
:1038C80043A9304600F01CFA7FE70E4B002B3FF46B
:1038D8003CAF01AB224643A93046AFF3008074E702
:1038E800A38913F0400F18BF4FF0FF300DF5257D69
:1038F800BDE8F08F4698F9E7B53500082F3600087F
:103908008A490008000000002DE9F04791461F464B
:103918008A680B6906469342B8BF1346C9F8003057
:1039280091F843200C46DDF8208012B10133C9F824
:1039380000302368990642BFD9F800300233C9F82D
:103948000030256815F0060507D104F1190AE36867
:10395800D9F800209B1A9D422ADB94F8433022684C
:10396800003318BF012392062FD404F143023946CD
:103978003046C047013022D02368E56803F00603CB
:10398800042B18BF0025D9F800204FF0000908BF04
:10399800AD1AA368226908BF25EAE5759342C4BF3A
:1039A8009B1AED181A344D451BD10020BDE8F0874D
:1039B8000123524639463046C047013003D14FF003
:1039C800FF30BDE8F0870135C1E73020E11881F804
:1039D80043005A1C94F845102244023382F84310DD
:1039E800C3E70123224639463046C0470130E6D0B6
:1039F80009F10109D7E700002DE9F04317460A7ECF
:103A080085B06E2A984606460C460C9B01F1430E7B
:103A180000F0BC801AD8632A2ED00AD8002A00F0F9
:103A2800C880582A00F08A8004F1420584F84220B0
:103A38002AE0642A01D0692AF6D121681A6811F0AF
:103A4800800F23D0111D1960136827E0732A00F036
:103A5800B48008D86F2A2AD0702AE5D10A6842F0C3
:103A680020020A6003E0752A21D0782ADCD1782266
:103A78006F4984F8452064E01A6801F14205111D78
:103A88001960136884F842300123A3E011F0400F55
:103A980002F104011960D7D0B2F90030002B03DA23
:103AA8002D225B4284F8432062490A2217E02068ED
:103AB800196810F0800F03D0081D18600B6806E025
:103AC80010F0400F01F104001860F7D00B886F2A3E
:103AD80014BF0A2208225749002084F84300656869
:103AE800002DA560C0F29C80206820F004002060B2
:103AF800002B3FD1002D40F095807546082A0BD148
:103B08002368DA0708D5236962689A42DEBF302342
:103B180005F8013C05F1FF35AEEB05032361CDF84F
:103B280000803B4603AA21463046FFF7EDFE0130F0
:103B380055D14FF0FF3005B0BDE8F08381F845203E
:103B48003C492268186812F0800F00F104051D60D6
:103B580001D0036802E05506FBD50388D00744BFAF
:103B680042F0200222601BB9226822F02002226063
:103B78001022B1E77546B3FBF2F002FB1033CB5CC1
:103B880005F8013D03460028F5D1B7E708681A682B
:103B980010F0800F496904D0101D1860136819606F
:103BA80007E010F0400F02F1040018601368F6D027
:103BB8001980002375462361B1E71A68111D196041
:103BC800156800216268284600F03EFB08B1401BDA
:103BD800606063682361002384F843309FE72369AA
:103BE8002A4639463046C0470130A2D023689B0791
:103BF80007D5002504F11909E368039A9B1A9D4229
:103C080005DBE068039B9842B8BF184693E7012399
:103C18004A4639463046C04701308AD00135EBE77D
:103C2800002BA7D10B7804F1420584F8423065E7F0
:103C3800A6490008954900082DE9F04115468A680B
:103C480080460C4632B98A69002A0CBF01224FF01F
:103C5800FF328A6000262268D1065FBF1A68111DEC
:103C680019601768A369DBB1012B07D12B6862695A
:103C78001B78D35CA3B9002E31D106E0022B07D004
:103C8800002E2CD1A369012B29D10120BDE8F08198
:103C980000F0BAFA2B681B78184443781B07EFD456
:103CA80023680136DA065EBF2B681B783B702A68EA
:103CB8006B6802F101022A60A26803F1FF3302F186
:103CC800FF326B6058BF0137A26042B1002BC9DCDC
:103CD800D4F880312946404698470028C2D0236846
:103CE80013F0100305D1E2680132E260A26902B163
:103CF8003B70236900201E442661BDE8F081000066
:103D08002DE9F04F0C469A46744B87B08346164609
:103D180093E8070003ABA76883E80700704BA16925
:103D2800704A04F11C09032918BF1A467B1EB3F513
:103D3800AE7F84BF40F25D13A360236888BF6FF431
:103D4800AE7543F45063236098BF00274B464FF08D
:103D58000008009288BF7F193168019303AB53F8BC
:103D680028000222097800F06FFA019B28B3B8F105
:103D7800010F56D162682AB908226260226842F4AB
:103D880000722260226822F4A0622260A268511E9A
:103D9800A16092B132685D1C511C316012781A70B2
:103DA8007368013B002B736006DCD4F88031314620
:103DB80058469847002877D12B4608F10108B8F1F2
:103DC800030FC9D162680AB90A226260626846496B
:103DD8006069891A019300F089F8019B4FF0000887
:103DE8001D46A368002B39D0316860690A78805C69
:103DF800002833D0302A226821D110051FD508F1B8
:103E0800010817B10133013FA3607368013B002B20
:103E180073601CDD336801333360A368013BA36022
:103E2800DFE7B8F1020FB1D1226802F4C061B1F541
:103E3800007FC2D1102142F480726160A5E722F4AC
:103E4800106222600B78013505F8013CDDE7D4F8F3
:103E580080313146584698470028DED02368D90576
:103E68000CD54D4508D915F8011C6F1ED4F87C31C6
:103E78003246584698473D464D452CD0226812F0A8
:103E880010021ED12A70636849465846009EB04702
:103E98002268DAF8003012F0200F08D01A1DCAF88C
:103EA80000201B68186009E04FF00008D6E7D20729
:103EB800F4D51A1DCAF800201B681880E36801337E
:103EC800E3600020A5EB0905A84425694544256160
:103ED80007B0BDE8F08F0120FAE700BFB849000835
:103EE8007541000855400008D449000870B50B78A2
:103EF800441E5E2B13BF4A1C8A1C4B78002108BF46
:103F0800012100F1FF0504F8011FA542FBD113B9F7
:103F1800013A104670BD81F001041146C4540D7871
:103F28004A1C2D2D06D05D2DF3D00DB90A46F0E7B9
:103F38002B46F2E74E785D2EFAD0B342F8DC023118
:103F480001339E42C454FBDCE9E72DE9F84F804673
:103F5800894692461F468B465D460A9815F8014BDE
:103F680000F04FF92044467816F008060BD12D2CA6
:103F78000BD101262C780BF1020567B1102F14D153
:103F8800302C0AD011E0AB46E6E72B2C04BF2C7886
:103F98000BF10205F1E7302C27D12B7803F0DF0372
:103FA800582B4BD110276C780235002E0CBF6FF0C0
:103FB80000414FF000410022B1FBF7FE104607FB1D
:103FC8001E1CA4F13003092B11D81C46A7421DDD85
:103FD800531C07D0864516D301D1A44513DB012213
:103FE80000FB074015F8014BEBE70A27DDE7A4F1D2
:103FF8004103192B01D8373CE8E7A4F16103192BD9
:1040080004D8573CE2E74FF0FF32EBE7531C08D1E6
:1040180022230846C8F80030BAF1000F07D1BDE8DE
:10402800F88F06B14042BAF1000F0CD022B1013D21
:10403800CAF80050BDE8F88F4D46F9E73024002F44
:10404800B3D10827B1E7BDE8F88F000037B5064CB3
:10405800064D2468246A002C08BF2C460094FFF7FC
:1040680074FF03B030BD00BF40000020A400002052
:104078002DE9F0478046894692461E460F463D4642
:10408800089815F8014B00F0BCF82044437813F069
:1040980008030AD12D2C0AD101232C78BD1C5EB14E
:1040A800102E13D1302C09D010E02F46E7E72B2C27
:1040B80004BF2C78BD1CF2E7302C25D12A7802F0F9
:1040C800DF02582A4AD110266C7802354FF0FF31AA
:1040D800B1FBF6F1002706FB01FE38466FEA0E0E2B
:1040E800A4F13002092A11D81446A6421DDD002F7A
:1040F80018DB814216D301D1A64513DB012700FB4B
:10410800064015F8014BEBE70A26DFE7A4F1410268
:10411800192A01D8373CE8E7A4F16102192A04D822
:10412800573CE2E74FF0FF37EBE7002F09DA22238D
:104138004FF0FF30C8F80030BAF1000F07D1BDE8E2
:10414800F08703B14042BAF1000F0CD027B1013D0E
:10415800CAF80050BDE8F0874D46F9E73024002E34
:10416800B4D10826B2E7BDE8F087000037B5064CA1
:10417800064D2468246A002C08BF2C460094FFF7DB
:1041880077FF03B030BD00BF40000020A40000202E
:104198002DE9F0410C46496B04F1440399421CD1C6
:1041A8004FF4806100F0C4F818B94FF0FF30BDE853
:1041B800F0814FF48063A36394F84630606380F81D
:1041C800FF3394F8453000F2FD30437094F84430E2
:1041D800037020600020BDE8F081A66B77003A46A6
:1041E80000F004F905460028DFD000EB0608014678
:1041F80032464046FEF7F4FFC4F800806563A763C3
:10420800E8E7D0F8EC007047044B054A1B681B6AC6
:10421800002B08BF1346D3F8EC007047400000207D
:10422800A400002082B001B901A942B14BB11378B2
:104238000B601278101C18BF012002B0704710469E
:10424800FBE76FF00100F8E710B5C9B202449042ED
:10425800034601D1002010BD1C7801308C42F6D1F4
:10426800184610BD884210B501EB020303D8421E60
:1042780099420CD110BD9842F9D28118D21AD34272
:1042880000D110BD13F8014D01F8014DF7E711F801
:10429800014B02F8014FEBE738B50546002943D03A
:1042A80051F8043C0C1F002BB8BFE41800F0E1F8EB
:1042B8001E4A1368104633B9636014602846BDE887
:1042C800384000F0D7B8A3420BD92168621893424E
:1042D80001BF1A685B685218226063600460EDE7EA
:1042E80013465A680AB1A242FAD919685818A04266
:1042F8000BD120680144581882421960DED1106839
:104308005268014419605A60D8E702D90C232B601F
:10431800D4E7206821188A4201BF11685268091839
:10432800216062605C60C9E738BD00BFA40200205C
:1043380070B5CD1C25F0030508350C2D38BF0C25AC
:10434800002D064601DBA94203D90C233360002067
:1043580070BD00F08EF8234A1468214691B9224CAA
:1043680023681BB9304600F067F8206029463046BC
:1043780000F062F8431C26D10C233046336000F06D
:1043880079F8E4E70B685B1B1AD40B2B0FD90B6089
:10439800CC18CD50304600F06DF804F10B00231D09
:1043A80020F00700C31A1BD05A42E25070BD8C425D
:1043B8000BBF63684B681360636018BF0C46E9E77E
:1043C8000C464968CAE7C41C24F00304A04205D07F
:1043D800211A304600F030F80130CDD02560D9E7F9
:1043E80070BD00BFA4020020A8020020F8B507464F
:1043F80014460E4621B91146BDE8F840FFF798BFAC
:1044080022B9FFF749FF25462846F8BD00F033F8E2
:1044180084420FD921463846FFF78AFF054600280F
:10442800F2D031462246FEF7DBFE31463846FFF72A
:1044380033FFE9E73546E7E738B50023054C05467D
:1044480008462360FDF79CFB431C02D1236803B197
:104458002B6038BDAC02002049B1FF2A8BBF8A23EC
:104468000A700360012088BF4FF0FF30704708468C
:1044780070477047704751F8040C0028A0F10400F9
:10448800BCBF0B58C01870472E2E2F7379737465F4
:104498006D2F7372632F73746D333266312D73749D
:1044A800647065726970682F6D6973632E630000AC
:1044B8002E2E2F73797374656D2F7372632F737437
:1044C8006D333266312D7374647065726970682F4C
:1044D80073746D3332663130785F646D612E6300BA
:1044E8002E2E2F73797374656D2F7372632F737407
:1044F8006D333266312D7374647065726970682F1C
:1045080073746D3332663130785F657874692E6301
:10451800000000002E2E2F73797374656D2F73724F
:10452800632F73746D333266312D737464706572E2
:104538006970682F73746D3332663130785F6770D5
:10454800696F2E63000000002E2E2F737973746537
:104558006D2F7372632F73746D333266312D7374DC
:10456800647065726970682F73746D3332663130A8
:10457800785F7263632E63002E2E2F7379737465D0
:104588006D2F7372632F73746D333266312D7374AC
:10459800647065726970682F73746D333266313078
:1045A800785F7370692E63002E2E2F73797374658C
:1045B8006D2F7372632F73746D333266312D73747C
:1045C800647065726970682F73746D333266313048
:1045D800785F75736172742E6300000061626F7298
:1045E8007428292C2065786974696E672E2E2E0030
:1045F8006173736572745F706172616D28292066DA
:1046080061696C65643A2066696C652022257322AD
:104618002C206C696E652025640A00005374616360
:104628006B206672616D653A0A00000020523020E6
:104638003D2020253038580A000000002052312043
:104648003D2020253038580A000000002052322032
:104658003D2020253038580A000000002052332021
:104668003D2020253038580A000000002052313201
:10467800203D20253038580A00000000204C5220E8
:104688003D2020253038580A0000000020504320E3
:104698003D2020253038580A000000002050535291
:1046A800203D20253038580A000000004653522F7C
:1046B8004641523A0A0000002043465352203D200A
:1046C80020253038580A00002048465352203D2003
:1046D80020253038580A00002044465352203D20F7
:1046E80020253038580A00002041465352203D20EA
:1046F80020253038580A0000204D4D464152203DB3
:1047080020253038580A00002042464152203D20DA
:1047180020253038580A00004D6973630A000000EC
:10472800204C522F4558435F52455455524E3D2018
:10473800253038580A0000005B486172644661758C
:104748006C745D0A000000005B4275734661756C0D
:10475800745D0A005B55736167654661756C745DCD
:104768000A0000004745545F434F4D4D414E442DCC
:104778003E0A000041542B434D444745545F4C4F7B
:1047880052415F434F4E460041542B434D444745E9
:10479800545F4C4F52415F434F4E463D25642C2594
:1047A800642C25640000000041542B434D444745C8
:1047B800545F53414D504C455F535441525400008F
:1047C80041542B434D444745545F53414D504C454C
:1047D8005F53544152543D256400000041542B431B
:1047E8004D444745545F53414D504C455F53544FDA
:1047F8005000000041542B434D444745545F5341FA
:104808004D504C455F53544F503D25640000000007
:1048180041542B434D444745545F444553545F41ED
:104828004444520041542B434D444745545F44454A
:1048380053545F414444523D2564000041542B4386
:104848004D444745545F4C4F43414C5F41444452AB
:104858000000000041542B434D444745545F4C4FE2
:1048680043414C5F414444523D25640041542B432D
:104878004D444745545F4C4F52415F4157414B456A
:10488800000000004C4F52415F504152414D455489
:1048980045523A202073616D706C65726174653A97
:1048A8002564202073616D706C65706F696E743A51
:1048B800256400004C4F52415F4E4F434F4E4649CE
:1048C80047212064656661756C743A202073616DB8
:1048D800706C65726174653A3332303020207361D0
:1048E8006D706C65706F696E743A343039360A00D1
:1048F8004B583132325F496E6974206661696C6564
:1049080064210A004B583132325F496E6974207352
:10491800756363657373210A00000000537973742B
:10492800656D20636C6F636B3A20257520487A0AA1
:10493800000000005732355131323820496E697411
:10494800206661696C6564210000000057323551AA
:1049580031323820496E69742053554343455353C7
:1049680021000000657261736520736563746F725E
:104978002073756363657373210A0000232D302B40
:104988002000686C4C006566674546470030313248
:10499800333435363738394142434445460030319F
:1049A80032333435363738396162636465660000FE
:1049B800D6490008D9490008DC490008412D46615C
:1049C8002D66383930313233343536375D002B2D8A
:1049D800003030007858000000000000000000009F
:1049E80000000000000000000000000000000000BF
:1049F80000000000000000000000000000000000AF
:104A0800000000000000000000000000000000009E
:104A1800000000000000000000000000000000008E
:104A2800000000000000000000000000000000007E
:104A380000000000000000004300504F5349580098
:104A48002E00002020202020202020202828282870
:104A58002820202020202020202020202020202046
:104A68002020208810101010101010101010101096
:104A780010101004040404040404040404101010A6
:104A88001010101041414141414101010101010152
:104A980001010101010101010101010101011010E0
:104AA8001010101042424242424202020202020226
:104AB80002020202020202020202020202021010B2
:104AC800101020000000000000000000000000009E
:104AD80000000000000000000000000000000000CE
:104AE80000000000000000000000000000000000BE
:104AF80000000000000000000000000000000000AE
:104B0800000000000000000000000000000000009D
:104B1800000000000000000000000000000000008D
:104B2800000000000000000000000000000000007D
:104B3800000000000000000000000000000000006D
:034B48000000006A
:104B4C007856341202040608000000000102030427
:104B5C0001020304060708091C02002000000000E3
:104B6C000000000000000000010203040607080911
:104B7C0000A24A04C200011C174017EF00100001EC
:104B8C004400002000000000004A0008204A0008F1
:104B9C00E0490008000000000000000000000000D8
:104BAC0000000000000000000000000000000000F9
:104BBC0000000000000000000000000000000000E9
:104BCC0000000000000000000000000000000000D9
:104BDC0000000000000000000000000000000000C9
:104BEC000000000043000000000000000000000076
:104BFC0000000000000000000000000000000000A9
:104C0C000000000043000000000000000000000055
:104C1C000000000000000000000000000000000088
:104C2C000000000043000000000000000000000035
:104C3C000000000000000000000000000000000068
:104C4C000000000043000000000000000000000015
:104C5C000000000000000000000000000000000048
:104C6C0000000000430000000000000000000000F5
:104C7C000000000000000000000000000000000028
:104C8C0000000000430000000000000000000000D5
:104C9C000000000000000000000000000000000008
:104CAC0000000000430000000000000000000000B5
:104CBC0000000000000000000000000000000000E8
:104CCC0000000000614400082D42000800000000B4
:104CDC004A4A0008484A00088949000889490008DE
:104CEC008949000889490008894900088949000850
:104CFC00894900088949000889490008FFFFFFFF1E
:104D0C00FFFFFFFFFFFFFFFFFFFF0000010041530C
:104D1C0043494900000000000000000000000000B2
:104D2C0000000000000000000000000000004153E3
:104D3C004349490000000000000000000000000092
:104D4C000000000000000000000000000000000057
:044D5C0032547698BF
:040000050800010DE1
:00000001FF
